:100000000C94D4000C94F1000C94F1000C94F100C9
:100010000C94F1000C94F1000C94F1000C94F1009C
:100020000C94F1000C94F1000C94F1000C94F1008C
:100030000C94F1000C94F1000C94F1000C94F1007C
:100040000C94F1000C94F1000C94F1000C94F1006C
:100050000C94F1000C94F1000C94F1000C94F1005C
:100060000C94F1000C94F10025780D00307825787F
:100070000D0A000A0D2020656E74657220612076DD
:100080006F6C7461676520746F2073657420617490
:100090002070696E31204F502D416D702E205B6DA8
:1000A000765D3A20000A0D2020656E74657220612D
:1000B00020766F6C7461676520746F20736574209F
:1000C00061742070696E37204F502D416D702E2065
:1000D0005B6D765D3A20000A0A0D72656D6F76657C
:1000E0002063616C6962726174696F6E206A756DFC
:1000F00070657220616E642072657365742E2E2E99
:10010000000A0D656E7465722074686520766F6CE8
:1001100074616765206174205664642050696E20A4
:100120005B6D765D2020202020203A2000656E74D3
:1001300065722074686520766F6C746167652061F4
:1001400074205670702050696E2028504135292047
:100150005B6D765D3A2000202D2D2D2D2D2D2D2D22
:100160002D2D2D2D2D2D2D2D2D2D2D2D2D2D2D2DBF
:100170002D2D2D2D2D2D2D2D2D2D0A0A0D000A0A88
:100180000D2043616C69627261746520746865203A
:1001900050574D20746F20616E616C6F67206F75D2
:1001A000747075740A0D000011241FBECFEFD8E0E3
:1001B000DEBFCDBF11E0A0E0B1E0E6E4F4E102C0B3
:1001C00005900D92AA32B107D9F723E0AAE2B1E077
:1001D00001C01D92AB32B207E1F70E941B060C94DE
:1001E000210A0C940000CF930E94A105873460F08F
:1001F0008755C82FC295C07F0E94A105873450F053
:1002000087558C2BCF9108958A3310F08753F1CF07
:100210008053EFCF8A3310F08753F3CF8053F1CF61
:10022000CF930E94F300C82F0E94F3009C2FCF9120
:100230000895219A82E88093800089E1809381006B
:10024000089590938700809386007093890060934F
:10025000880008952091060130910701409108011E
:10026000509109010E94450820E030E040E854E444
:100270000E947B0920910201309103014091040109
:10028000509105010E9445080E94B70880E094E063
:100290000C942101559A83E284BD89E085BD8FEFDE
:1002A00087BD80E888BD089520910A0130910B0137
:1002B00040910C0150910D010E94450820E030E072
:1002C0004FE753E40E947B09209102013091030122
:1002D00040910401509105010E9445080E94BE080A
:1002E00068BD0895539A83E28093B0008AE08093BA
:1002F000B10084E18093B3008FE08093B40008954F
:10030000809178009091790008950F931F93CF9377
:10031000DF9308E010E0D0E0C0E00E948001C80F49
:10032000D91F2FEF86E791E0215080409040E1F700
:1003300000C000000150110981F7CE0123E095951E
:1003400087952A95E1F7DF91CF911F910F9108953D
:100350008295880F880F807CECE7F0E080838081B5
:10036000682B6083EAE7F0E087EE80838FE99FE007
:100370000197F1F700C0000087EA808308954F924B
:100380005F926F927F928F929F92AF92BF92CF9225
:10039000DF92EF92FF924B015C0169017A010E94AA
:1003A0008501BC01990F880B990B0E94EF082DEC79
:1003B0003CEC4CE85FE30E947B0920E030E040E841
:1003C0005AE30E947B092B013C01A7019601C5015C
:1003D000B4010E94D907A70196010E9445089B011C
:1003E000AC01C301B2010E947B09FF90EF90DF9046
:1003F000CF90BF90AF909F908F907F906F905F90C5
:100400004F9008950C94960580E090E0A0E0B0E451
:1004100080930A0190930B01A0930C01B0930D01FE
:1004200086E696E6A6EBB0E480930601909307017A
:10043000A0930801B093090160E070E080E091E4CE
:100440000E942A0160E070E080EC90E40E94540178
:100450008EE791E09F938F930E941B0587E591E0C3
:100460009F938F930E941B058DE291E09F938F9342
:100470000E941B050E94A805BC0190E080E00E943C
:10048000ED0820E030E04AE754E40E94450820915E
:1004900006013091070140910801509109010E9425
:1004A0007B0920E030E040E05EE30E947B0960933E
:1004B000060170930701809308019093090160E0A1
:1004C00070E080E091E40E942A0181E091E09F9336
:1004D0008F930E941B050E94A805BC0190E080E05C
:1004E0000E94ED0820E030E04AE754E40E9445080D
:1004F00020910A0130910B0140910C0150910D01A6
:100500000E947B0920E030E040EC50E40E94450866
:1005100060930A0170930B0180930C0190930D017D
:1005200060E070E080EC90E40E9454016AEA80E1AF
:1005300090E00E94F60940910601509107016091F8
:1005400008017091090188E190E00E94040A40913D
:100550000A0150910B0160910C0170910D0184E131
:1005600090E00E94040A87ED90E09F938F930E9491
:100570001B058DB79EB70A960FB6F8949EBF0FBEA7
:100580008DBFFFCF60E070E080EA90E40E942A0116
:1005900063E373E383E590E40E94540105EA10E00D
:1005A000C3E7D0E01F930F930E941B050E94A8058C
:1005B000BC0190E080E00E94ED0820E030E04AE7D6
:1005C00054E40E9445080E942A01DF93CF930E94C1
:1005D0001B050E94A805BC0190E080E00E94ED0888
:1005E00020E030E04AE754E40E9445080E945401AC
:1005F0000F900F900F900F90D5CF6DEC7CEC8CE4AA
:100600009DE30E945401569A5E9852985A9A8FE937
:100610009FE00197F1F700C00000089520E130E06D
:10062000261B310902C0880F991F2A95E2F79C0109
:10063000529A90E05E98961303C052985A9A089581
:1006400037FF0CC05A9A220F331F80E18A95F1F7C9
:100650005E9A80E18A95F1F79F5FECCF5A98F3CFCD
:10066000382F90E080E020E05E9823130FC02AE04E
:100670002A95F1F700C05E9A4AE04A95F1F700C06A
:100680005E982AE02A95F1F700C0089540E14A9566
:10069000F1F75E9A4AE04A95F1F700C0880F991F7A
:1006A0004A99816045E04A95F1F700002F5FDCCF61
:1006B0006DE00E940E038EE00C943003CF93C82FA0
:1006C0000E94FD0263E373E383E590E40E9454011A
:1006D0008FE99FE00197F1F700C0000060E070E053
:1006E00080EB90E40E942A018FE39CE90197F1F7E7
:1006F00000C000006DEC7CEC8CE49DE30E94540192
:100700008FEC97E00197F1F700C000008FE19EE4C5
:100710000197F1F700C0000063E373E383E590E421
:100720000E9454018FEC97E00197F1F700C00000A0
:100730008FE19EE40197F1F700C0000060E185EAD7
:1007400095EA0E940E0368E085EA95EA0E940E038E
:1007500068E08C2F90E00E940E0363E090E080E060
:100760000E940E038DE00E9430039F70CF91089588
:10077000CF93DF9387EA0E945E03EC010E94FD02A3
:100780008FE39CE90197F1F700C00000CE01DF91F3
:10079000CF91089583EA0E945E0363E373E383E0ED
:1007A00091E40E942A018FE39CE90197F1F700C0D0
:1007B000000060E070E080E090E40E945401EFE30C
:1007C000FCE93197F1F700C00000529A5A9882E094
:1007D0005E9AEFE1FEE43197F1F700C000005E9809
:1007E000FAE0FA95F1F700C05E9A9AE09A95F1F76F
:1007F00000C05E98EAE0EA95F1F700C0813099F414
:100800005E9AFAE0FA95F1F700C05E988AE08A9560
:10081000F1F700C00E94FD02EFE3FCE93197F1F728
:1008200000C00000089581E0D3CFEF92FF920F93B4
:100830001F93CF93DF937C018B01EA016EE041FFB0
:1008400043C08FEF9FEF0E940E036EE08FEF9FEF8C
:100850000E940E036EE0C7010E940E036EE0C80105
:100860000E940E036DE0CE018C7F0E940E03529A0F
:1008700095E09A95F1F700005A9A85E08A95F1F78C
:1008800000005A9895E09A95F1F7000088E05E9A8A
:1008900095E79A95F1F700005E9895E79A95F1F73C
:1008A00000008150A1F785E08A95F1F70000529889
:1008B0005A9A61E090E080E0DF91CF911F910F9113
:1008C000FF90EF900C940E03C7010E940E036EE0A0
:1008D000C8010E940E036EE08FEF9FEF0E940E038F
:1008E0006EE08FEF9FEFBCCF8F929F92AF92BF923F
:1008F000CF92DF92EF92FF921F93CF93DF93EC01A1
:10090000F62E80E3209709F450C0D7FF06C08DE291
:100910000E940202D195C195D10915E01F1981E20B
:10092000A82E81E0B82EF12CE12C30E020E0812EC1
:10093000012E000C99088E149F0461F4112351F0CC
:10094000232B19F480E30E9402028EE20E9402022D
:1009500021E030E0F501619171915F0190E080E06C
:10096000D12CC12C02C001966A01A601460F571F67
:10097000C417D507C0F7009719F42115310529F0E0
:10098000805D0E94020221E030E0CC19DD09FFEF1A
:10099000EF1AFF0A84E0E816F10469F6143019F43E
:1009A0008EE20E9402028C2F805DDF91CF911F9119
:1009B000FF90EF90DF90CF90BF90AF909F908F907F
:1009C0000C9402028A3018F4805D0C940202895C57
:1009D000FCCFCF93DF93EC018F3F910551F048F0AE
:1009E0008D2F82958F700E94E2048D2F8F700E9450
:1009F000E204CE0124E0969587952A95E1F78F7061
:100A00000E94E2048C2F8F70DF91CF910C94E2044E
:100A10000F931F93CF93DF93EC01FE0181918F0120
:100A20000E9402028881E8018111F7CFDF91CF9106
:100A30001F910F910895CF92DF92EF92FF920F9343
:100A40001F93CF93DF93CDB7DEB7FE013B96E190C6
:100A5000F1908F01F7018491882309F44DC085320C
:100A600009F03DC0FFEFEF1AFF0AF70184918436C9
:100A7000B1F040F4853291F1833639F1FFEFEF1A8E
:100A8000FF0AE8CF833771F18837A1F08B36B1F7D1
:100A90006801F2E0CF0ED11C60910E0105C0680123
:100AA000F2E0CF0ED11C60E0F801808191810E94BC
:100AB000740409C06801F2E0CF0ED11CF8018081F6
:100AC00091810E94E9048601D9CF6801F2E0CF0E3E
:100AD000D11CF80180810E940202F5CF85E20E94BC
:100AE0000202CCCF6801F2E0CF0ED11CF801808168
:100AF00091810E940805E7CFDF91CF911F910F915F
:100B0000FF90EF90DF90CF900895E0ECF0E08081CF
:100B1000826080831092C50080E18093C40088E1E8
:100B20008093C10086E08093C20008959091C00038
:100B300095FFFCCF8093C60008958091C000807817
:100B400008958091C00087FFFCCF8091C600089572
:100B5000DF92EF92FF920F931F93CF93DF93D0E03A
:100B6000C0E000E08AE0E82EF12C9AE0D92E0E9445
:100B7000A105182F8A3009F41DE080ED810F8A301D
:100B800038F5209791F48823A1F0C82FD0E0812F69
:100B90000E9496051D32E9F5209749F78DE20E94E3
:100BA0009605D0E0C0E001E0E2CFCD3C9CE0D90763
:100BB000F0F6DC9E9001DD9E300D11242F3E9FE764
:100BC000390710F0883030F7E901C80FD11DDFCFA9
:100BD0001F3711F01830F1F6209769F0CE01B701F8
:100BE0000E94C407EB0188E00E94960580E20E9403
:100BF000960588E0CDCF002349F088E00E94960555
:100C000080E20E94960588E00E94960500E01D3271
:100C100029F21D3009F0ABCF882799278C1B9D0B3B
:100C2000011101C0CE01DF91CF911F910F91FF9073
:100C3000EF90DF9008952FEF32E547E021503040EC
:100C40004040E1F700C000000E9485053998419AB4
:100C500062E083E00E94A8010E9419010E944A01FB
:100C6000209A83E090E0289AEFEFF1EE24E0E15043
:100C7000F0402040E1F700C0000028983FEF41EE2F
:100C8000E4E031504040E040E1F700C0000001974F
:100C900051F70E948501BC01990F880B990B0E94A6
:100CA000EF082DEC3CEC4CE85FE30E947B0920E070
:100CB00030E040E85AE30E947B0920E030E040E366
:100CC00051E40E947B0960930201709303018093B9
:100CD0000401909305016FE872EC85EF9CE30E949C
:100CE0002A016FE872EC85EF9CE30E945401319B6E
:100CF0000E94040280E190E00E94E8098A3AC1F46F
:100D000088E190E00E94F00960930601709307016A
:100D1000809308019093090184E190E00E94F0091A
:100D200060930A0170930B0180930C0190930D0165
:100D300023E0722E3CE6C32E30E0D32E48E6A42EEC
:100D400040E0B42E0E949D0581110E94A1058FE311
:100D50009CE90197F1F700C000000E949D058111F8
:100D6000F1CF0E94A105803509F48FC0823509F4C6
:100D700056C0823709F471C0893699F7B9CF0E94FD
:100D8000A105F40181934F012091000130910101EF
:100D9000C4018B5291408217930788F39BE2892EFE
:100DA00091E0992E2091000130910101C4018B52F4
:100DB00091408217930738F088E70E9496052FEF3D
:100DC000E21AF20AD5C00C171D0750F4F401628133
:100DD0008381762F682F90818181A8010E9415045C
:100DE0000E5F1F4FF4E08F0E911CDCCF0E94FD02BE
:100DF0006DEC7CEC8CE49DE30E942A016FE872ECC0
:100E000085EF9CE30E94540128983FEF49E688E172
:100E1000315040408040E1F700C0000093CF0E9475
:100E2000FD026DEC7CEC8CE49DE30E942A016FE8EE
:100E300072EC85EF9CE30E9454019FEFE1EEF4E039
:100E40009150E040F040E1F700C0000060E070E049
:100E500080EA90E40E945401D8CF0E94FD026DEC1C
:100E60007CEC8CE49DE30E942A016FE872EC85EF34
:100E70009CE30E9454012FEF31EE44E021503040BA
:100E80004040E1F700C00000C0CF70920E016AE060
:100E900077ED83EA9CE30E942A016AE077ED83EA1A
:100EA0009CE30E9454018FEF93EFE1E0815090406A
:100EB000E040E1F700C000000E94FD020E94B8037C
:100EC0009F938F93DF92CF920E941B050E94100187
:100ED000EC0160910001709101010E94C4070F9024
:100EE0000F900F900F90892B09F06F5F60932A018C
:100EF000289A0E94FD029FEFE0E7F2E09150E04067
:100F0000F040E1F700C000000E94CA032FEF30E775
:100F100042E0215030404040E1F700C0000087EA45
:100F20000E945E036AE979E989EB90E40E9454012A
:100F30008FE39CE90197F1F700C0000063E373E3DE
:100F400083EF90E40E942A01EFE3FCE93197F1F787
:100F500000C00000DF93CF93BF92AF920E941B05A9
:100F60000F900F900F900F9010E000E0F12CE12C0B
:100F700080912A018E151F0409F00CF437CF8BE203
:100F8000882E81E0982E00CFAA1BBB1B51E107C021
:100F9000AA1FBB1FA617B70710F0A61BB70B881F09
:100FA000991F5A95A9F780959095BC01CD01089598
:100FB0005058BB27AA270E94F0070C9441090E94B1
:100FC000330938F00E943A0920F039F49F3F19F4B0
:100FD00026F40C9430090EF4E095E7FB0C942A09F2
:100FE000E92F0E94520958F3BA1762077307840762
:100FF000950720F079F4A6F50C9474090EF4E095A9
:101000000B2EBA2FA02D0B01B90190010C01CA01C2
:10101000A0011124FF27591B99F0593F50F4503E6D
:1010200068F11A16F040A22F232F342F4427585F5F
:10103000F3CF469537952795A795F0405395C9F777
:101040007EF41F16BA0B620B730B840BBAF091502F
:10105000A1F0FF0FBB1F661F771F881FC2F70EC0CE
:10106000BA0F621F731F841F48F4879577956795A1
:10107000B795F7959E3F08F0B0CF9395880F08F08D
:101080009927EE0F9795879508950E9459080C941B
:1010900041090E943A0958F00E94330940F029F4AE
:1010A0005F3F29F00C942A0951110C9475090C9496
:1010B00030090E94520968F39923B1F3552391F343
:1010C000951B550BBB27AA2762177307840738F0B7
:1010D0009F5F5F4F220F331F441FAA1FA9F335D014
:1010E0000E2E3AF0E0E832D091505040E695001CC8
:1010F000CAF72BD0FE2F29D0660F771F881FBB1F82
:10110000261737074807AB07B0E809F0BB0B802D5F
:10111000BF01FF2793585F4F3AF09E3F510578F08B
:101120000C942A090C9475095F3FE4F3983ED4F3BC
:10113000869577956795B795F7959F5FC9F7880F5F
:10114000911D9695879597F90895E1E0660F771FB1
:10115000881FBB1F621773078407BA0720F0621B42
:10116000730B840BBA0BEE1F88F7E09508950E946D
:10117000BE086894B1110C94750908950E945A092B
:1011800088F09F5798F0B92F9927B751B0F0E1F048
:10119000660F771F881F991F1AF0BA95C9F714C0F8
:1011A000B13091F00E947409B1E008950C94740973
:1011B000672F782F8827B85F39F0B93FCCF3869531
:1011C00077956795B395D9F73EF49095809570958E
:1011D00061957F4F8F4F9F4F0895E89409C097FB0B
:1011E0003EF490958095709561957F4F8F4F9F4FFE
:1011F0009923A9F0F92F96E9BB279395F695879542
:1012000077956795B795F111F8CFFAF4BB0F11F404
:1012100060FF1BC06F5F7F4F8F4F9F4F16C08823AB
:1012200011F096E911C0772321F09EE8872F762FE1
:1012300005C0662371F096E8862F70E060E02AF022
:101240009A95660F771F881FDAF7880F969587950E
:1012500097F9089597F99F6780E870E060E0089536
:101260009FEF80EC089500240A94161617061806BE
:101270000906089500240A9412161306140605069A
:101280000895092E0394000C11F4882352F0BB0F2B
:1012900040F4BF2B11F460FF04C06F5F7F4F8F4F8E
:1012A0009F4F089557FD9058440F551F59F05F3FC9
:1012B00071F04795880F97FB991F61F09F3F79F078
:1012C00087950895121613061406551FF2CF4695FA
:1012D000F1DF08C0161617061806991FF1CF86957C
:1012E0007105610508940895E894BB276627772760
:1012F000CB0197F908950E948E090C9441090E9430
:10130000330938F00E943A0920F0952311F00C942B
:101310002A090C94300911240C9475090E94520971
:1013200070F3959FC1F3950F50E0551F629FF00138
:10133000729FBB27F00DB11D639FAA27F00DB11D51
:10134000AA1F649F6627B00DA11D661F829F2227DA
:10135000B00DA11D621F739FB00DA11D621F839F61
:10136000A00D611D221F749F3327A00D611D231F37
:10137000849F600D211D822F762F6A2F11249F5785
:1013800050409AF0F1F088234AF0EE0FFF1FBB1F88
:10139000661F771F881F91505040A9F79E3F510547
:1013A00080F00C942A090C9475095F3FE4F3983E91
:1013B000D4F3869577956795B795F795E7959F5FF1
:1013C000C1F7FE2B880F911D9695879597F9089583
:1013D000F999FECF92BD81BDF89A992780B50895FD
:1013E000A6E1B0E044E050E00C94130A262FF999EE
:1013F000FECF1FBA92BD81BD20BD0FB6F894FA9AF8
:10140000F99A0FBE01960895242F0E94F709252FFF
:101410000E94F7090C940C0A0E94F609272F0C94DD
:10142000F709DC01CB01FC01F999FECF06C0F2BD42
:10143000E1BDF89A319600B40D9241505040B8F792
:061440000895F894FFCFAF
:10144600F4010000A0406666B6400000004001A11D
:101456000AFF07333303413333F3400000B0400D36
:0A1466000E1027E80364000A0000DE
:00000001FF
